:100000000C94FE000C9416010C9416010C9416012D
:100010000C9416010C9416010C9416010C94160104
:100020000C9416010C9416010C9416010C941601F4
:100030000C9416010C9416010C9416010C941601E4
:100040000C9416010C9416010C9416010C941601D4
:100050000C9416010C9416010C9416010C941601C4
:100060000C9416010C9416010C9416010C941601B4
:100070000C9416010C9416010C9416010C941601A4
:100080000C9416010C9416010C9416010C94160194
:100090000C9416010C9416010C9416010C94160184
:1000A0000C9416010C9416010C9416010C94160174
:1000B0000C9416010C9416010C9416010C94160164
:1000C0000C9416010C9416010C9416010C94160154
:1000D0000C9416010C9416010C9416010C94160144
:1000E0000C9416010C9416010C9416010C94160134
:1000F0000C9416010C9416010C9416010C94160124
:100100000C9416010C9416010C9416010C94160113
:100110000C9416010C9416010C9416010C94EF012A
:100120000C9416010C9416010C9416010C941601F3
:100130000C9416010C9416010C9416010C941601E3
:100140000C9416010C9416010C9416010C941601D3
:100150000C9416010C9416010C9416010C941601C3
:100160000C9433020C9416010C9416010C94160195
:100170000C9416010C9416010C9416010C941601A3
:100180000C9416010C9416010C9416010C94160193
:100190000C9416010C9416010C9416010C94160183
:1001A0000C9416010C9416010C9416010C94160173
:1001B0000C9416010C9416010C9416010C94160163
:1001C0000C9416010C9416010C9416010C94160153
:1001D0000C9416010C9416010C9416010C94160143
:1001E0000C9416010C9416010C9416010C94160133
:1001F0000C9416010C9416010C94160111241FBEC8
:10020000CFEFCDBFDFE3DEBF00E00CBF18BE19BEED
:100210001ABE1BBE20E2A0E0B0E201C01D92A430D5
:10022000B207E1F70E9481020C949F020C94000037
:10023000CF93DF93CDB7DEB780E092E020E1FC0101
:10024000218380E092E020E3FC01228380E092E0C1
:1002500027E0FC01248380E092E023E0FC0120A35E
:1002600080E891E020ECFC01208380E092E022E035
:10027000FC0122A380E092E021E0FC01238380E0E6
:1002800092E021E0FC0120830000DF91CF910895EE
:10029000CF93DF93CDB7DEB780E098E0FC0110A2EA
:1002A00011A280E098E026E633E3FC0126A337A301
:1002B00080E098E021E0FC0120830000DF91CF91F5
:1002C0000895CF93DF931F921F92CDB7DEB789E0D9
:1002D000898389EF8A8380E696E028E0FC01258304
:1002E00080E696E028E0FC01218380E696E024E0A9
:1002F000FC01228380EA99E02981FC01268380EABF
:1003000099E02A81022E000C330B22953295307F22
:100310003227207F3227422F2981222F30E0232FBE
:10032000330F330B242BFC01278380EA99E023E36E
:10033000FC01258380EA99E028E1FC01248380EA1E
:1003400099E020E1FC01238300000F900F90DF91E2
:10035000CF910895CF93DF931F92CDB7DEB78983F6
:10036000000080EA99E0FC018181882F90E0807292
:100370009927892BB1F380EA99E02981FC01208338
:1003800000000F90DF91CF910895CF93DF93CDB709
:10039000DEB780EA90E023E0FC012283789400003D
:1003A000DF91CF910895CF93DF9300D01F92CDB707
:1003B000DEB78B839C838B8189838B819C81892F82
:1003C00099278A8389810E94AA018A810E94AA01B1
:1003D00000002496CDBFDEBFDF91CF9108951F921C
:1003E0000F9200903F000F921124009038000F925E
:1003F0001092380000903A000F9210923A0000904C
:100400003B000F9210923B008F939F93EF93FF93CB
:10041000CF93DF93CDB7DEB780E092E0FC0184A1FB
:1004200095A1809300209093012080E098E0FC014A
:1004300010A211A281E0809302200000DF91CF91F1
:10044000FF91EF919F918F910F9000923B000F9041
:1004500000923A000F90009238000F9000923F00F7
:100460000F901F9018951F920F9200903F000F92CF
:100470001124009038000F921092380000903A003A
:100480000F9210923A0000903B000F9210923B00A6
:100490002F938F939F93EF93FF93CF93DF93CDB7DA
:1004A000DEB780EA99E0FC0180818093032080918F
:1004B0000320823431F480E092E02AE0FC0121A3A1
:1004C00009C080910320863429F480E092E021E283
:1004D000FC0121A30000DF91CF91FF91EF919F914B
:1004E0008F912F910F9000923B000F9000923A0055
:1004F0000F90009238000F9000923F000F901F90D5
:100500001895CF93DF93CDB7DEB70E9461010E94AB
:1005100048010E9418010E94C50180E096E02FEF7B
:10052000FC012283809102208823E1F310920220B3
:1005300080910020909101200E94D301F3CFF89484
:02054000FFCFEB
:00000001FF
